{
  "contractName": "NFT",
  "abi": [
    {
      "inputs": [],
      "stateMutability": "nonpayable",
      "type": "constructor"
    },
    {
      "anonymous": false,
      "inputs": [
        {
          "indexed": true,
          "internalType": "address",
          "name": "owner",
          "type": "address"
        },
        {
          "indexed": true,
          "internalType": "address",
          "name": "approved",
          "type": "address"
        },
        {
          "indexed": true,
          "internalType": "uint256",
          "name": "tokenId",
          "type": "uint256"
        }
      ],
      "name": "Approval",
      "type": "event"
    },
    {
      "anonymous": false,
      "inputs": [
        {
          "indexed": true,
          "internalType": "address",
          "name": "owner",
          "type": "address"
        },
        {
          "indexed": true,
          "internalType": "address",
          "name": "operator",
          "type": "address"
        },
        {
          "indexed": false,
          "internalType": "bool",
          "name": "approved",
          "type": "bool"
        }
      ],
      "name": "ApprovalForAll",
      "type": "event"
    },
    {
      "anonymous": false,
      "inputs": [
        {
          "indexed": true,
          "internalType": "address",
          "name": "from",
          "type": "address"
        },
        {
          "indexed": true,
          "internalType": "address",
          "name": "to",
          "type": "address"
        },
        {
          "indexed": true,
          "internalType": "uint256",
          "name": "tokenId",
          "type": "uint256"
        }
      ],
      "name": "Transfer",
      "type": "event"
    },
    {
      "anonymous": false,
      "inputs": [
        {
          "indexed": false,
          "internalType": "bytes32",
          "name": "hash",
          "type": "bytes32"
        }
      ],
      "name": "show",
      "type": "event"
    },
    {
      "anonymous": false,
      "inputs": [
        {
          "indexed": false,
          "internalType": "string",
          "name": "hash",
          "type": "string"
        }
      ],
      "name": "showString",
      "type": "event"
    },
    {
      "inputs": [
        {
          "internalType": "address",
          "name": "to",
          "type": "address"
        },
        {
          "internalType": "uint256",
          "name": "tokenId",
          "type": "uint256"
        }
      ],
      "name": "approve",
      "outputs": [],
      "stateMutability": "nonpayable",
      "type": "function"
    },
    {
      "inputs": [
        {
          "internalType": "address",
          "name": "owner",
          "type": "address"
        }
      ],
      "name": "balanceOf",
      "outputs": [
        {
          "internalType": "uint256",
          "name": "",
          "type": "uint256"
        }
      ],
      "stateMutability": "view",
      "type": "function"
    },
    {
      "inputs": [
        {
          "internalType": "uint256",
          "name": "",
          "type": "uint256"
        },
        {
          "internalType": "uint256",
          "name": "",
          "type": "uint256"
        }
      ],
      "name": "crossChainPending",
      "outputs": [
        {
          "internalType": "string",
          "name": "",
          "type": "string"
        }
      ],
      "stateMutability": "view",
      "type": "function"
    },
    {
      "inputs": [
        {
          "internalType": "uint256",
          "name": "tokenId",
          "type": "uint256"
        }
      ],
      "name": "getApproved",
      "outputs": [
        {
          "internalType": "address",
          "name": "",
          "type": "address"
        }
      ],
      "stateMutability": "view",
      "type": "function"
    },
    {
      "inputs": [
        {
          "internalType": "address",
          "name": "owner",
          "type": "address"
        },
        {
          "internalType": "address",
          "name": "operator",
          "type": "address"
        }
      ],
      "name": "isApprovedForAll",
      "outputs": [
        {
          "internalType": "bool",
          "name": "",
          "type": "bool"
        }
      ],
      "stateMutability": "view",
      "type": "function"
    },
    {
      "inputs": [],
      "name": "name",
      "outputs": [
        {
          "internalType": "string",
          "name": "",
          "type": "string"
        }
      ],
      "stateMutability": "view",
      "type": "function"
    },
    {
      "inputs": [
        {
          "internalType": "uint256",
          "name": "tokenId",
          "type": "uint256"
        }
      ],
      "name": "ownerOf",
      "outputs": [
        {
          "internalType": "address",
          "name": "",
          "type": "address"
        }
      ],
      "stateMutability": "view",
      "type": "function"
    },
    {
      "inputs": [
        {
          "internalType": "address",
          "name": "from",
          "type": "address"
        },
        {
          "internalType": "address",
          "name": "to",
          "type": "address"
        },
        {
          "internalType": "uint256",
          "name": "tokenId",
          "type": "uint256"
        }
      ],
      "name": "safeTransferFrom",
      "outputs": [],
      "stateMutability": "nonpayable",
      "type": "function"
    },
    {
      "inputs": [
        {
          "internalType": "address",
          "name": "from",
          "type": "address"
        },
        {
          "internalType": "address",
          "name": "to",
          "type": "address"
        },
        {
          "internalType": "uint256",
          "name": "tokenId",
          "type": "uint256"
        },
        {
          "internalType": "bytes",
          "name": "data",
          "type": "bytes"
        }
      ],
      "name": "safeTransferFrom",
      "outputs": [],
      "stateMutability": "nonpayable",
      "type": "function"
    },
    {
      "inputs": [
        {
          "internalType": "address",
          "name": "operator",
          "type": "address"
        },
        {
          "internalType": "bool",
          "name": "approved",
          "type": "bool"
        }
      ],
      "name": "setApprovalForAll",
      "outputs": [],
      "stateMutability": "nonpayable",
      "type": "function"
    },
    {
      "inputs": [
        {
          "internalType": "bytes4",
          "name": "interfaceId",
          "type": "bytes4"
        }
      ],
      "name": "supportsInterface",
      "outputs": [
        {
          "internalType": "bool",
          "name": "",
          "type": "bool"
        }
      ],
      "stateMutability": "view",
      "type": "function"
    },
    {
      "inputs": [],
      "name": "symbol",
      "outputs": [
        {
          "internalType": "string",
          "name": "",
          "type": "string"
        }
      ],
      "stateMutability": "view",
      "type": "function"
    },
    {
      "inputs": [
        {
          "internalType": "address",
          "name": "from",
          "type": "address"
        },
        {
          "internalType": "address",
          "name": "to",
          "type": "address"
        },
        {
          "internalType": "uint256",
          "name": "tokenId",
          "type": "uint256"
        }
      ],
      "name": "transferFrom",
      "outputs": [],
      "stateMutability": "nonpayable",
      "type": "function"
    },
    {
      "inputs": [
        {
          "internalType": "uint256",
          "name": "tokenId",
          "type": "uint256"
        },
        {
          "internalType": "address",
          "name": "receiver",
          "type": "address"
        },
        {
          "internalType": "string",
          "name": "tokenURL",
          "type": "string"
        },
        {
          "internalType": "bytes32",
          "name": "hashValue",
          "type": "bytes32"
        }
      ],
      "name": "crossChainMint",
      "outputs": [
        {
          "internalType": "bool",
          "name": "",
          "type": "bool"
        }
      ],
      "stateMutability": "nonpayable",
      "type": "function"
    },
    {
      "inputs": [
        {
          "internalType": "uint256",
          "name": "tokenId",
          "type": "uint256"
        }
      ],
      "name": "getHashValue",
      "outputs": [
        {
          "internalType": "bytes32",
          "name": "hashValue",
          "type": "bytes32"
        }
      ],
      "stateMutability": "view",
      "type": "function"
    },
    {
      "inputs": [
        {
          "internalType": "uint256",
          "name": "tokenId",
          "type": "uint256"
        },
        {
          "internalType": "string",
          "name": "anwser",
          "type": "string"
        }
      ],
      "name": "crossChainClaim",
      "outputs": [
        {
          "internalType": "bool",
          "name": "",
          "type": "bool"
        }
      ],
      "stateMutability": "nonpayable",
      "type": "function"
    },
    {
      "inputs": [
        {
          "internalType": "uint256",
          "name": "tokenId",
          "type": "uint256"
        },
        {
          "internalType": "string",
          "name": "receiver",
          "type": "string"
        },
        {
          "internalType": "string",
          "name": "hashValue",
          "type": "string"
        }
      ],
      "name": "crossChainTransfer",
      "outputs": [
        {
          "internalType": "bool",
          "name": "",
          "type": "bool"
        }
      ],
      "stateMutability": "nonpayable",
      "type": "function"
    },
    {
      "inputs": [],
      "name": "queryCrossChainPending",
      "outputs": [
        {
          "internalType": "string[][]",
          "name": "",
          "type": "string[][]"
        }
      ],
      "stateMutability": "view",
      "type": "function"
    },
    {
      "inputs": [
        {
          "internalType": "uint256",
          "name": "tokenId",
          "type": "uint256"
        }
      ],
      "name": "tokenURI",
      "outputs": [
        {
          "internalType": "string",
          "name": "",
          "type": "string"
        }
      ],
      "stateMutability": "view",
      "type": "function"
    },
    {
      "inputs": [
        {
          "internalType": "uint256",
          "name": "tokenId",
          "type": "uint256"
        }
      ],
      "name": "exists",
      "outputs": [
        {
          "internalType": "bool",
          "name": "",
          "type": "bool"
        }
      ],
      "stateMutability": "view",
      "type": "function"
    },
    {
      "inputs": [
        {
          "internalType": "uint256",
          "name": "tokenId",
          "type": "uint256"
        }
      ],
      "name": "burn",
      "outputs": [],
      "stateMutability": "nonpayable",
      "type": "function"
    },
    {
      "inputs": [],
      "name": "clearMsg",
      "outputs": [],
      "stateMutability": "nonpayable",
      "type": "function"
    }
  ],
  "bytecode": "0x60806040523480156200001157600080fd5b506040518060400160405280600a81526020017f464c4f572d44414e5445000000000000000000000000000000000000000000008152506040518060400160405280600a81526020017f464c4f572d44414e544500000000000000000000000000000000000000000000815250816000908051906020019062000096929190620000b8565b508060019080519060200190620000af929190620000b8565b505050620001cd565b828054620000c69062000197565b90600052602060002090601f016020900481019282620000ea576000855562000136565b82601f106200010557805160ff191683800117855562000136565b8280016001018555821562000136579182015b828111156200013557825182559160200191906001019062000118565b5b50905062000145919062000149565b5090565b5b80821115620001645760008160009055506001016200014a565b5090565b7f4e487b7100000000000000000000000000000000000000000000000000000000600052602260045260246000fd5b60006002820490506001821680620001b057607f821691505b60208210811415620001c757620001c662000168565b5b50919050565b61353780620001dd6000396000f3fe608060405234801561001057600080fd5b50600436106101425760003560e01c806362144796116100b857806395d89b411161007c57806395d89b41146103ad578063a22cb465146103cb578063a6805fd5146103e7578063b88d4fde14610417578063c87b56dd14610433578063e985e9c51461046357610142565b806362144796146102e35780636352211e146103135780636c3220de146103435780636fbf29e61461034d57806370a082311461037d57610142565b80630f84ff9b1161010a5780630f84ff9b1461021157806323b872dd1461022f57806342842e0e1461024b57806342966c68146102675780634f558e79146102835780635fd0d45d146102b357610142565b806301ffc9a71461014757806302304d3d1461017757806306fdde03146101a7578063081812fc146101c5578063095ea7b3146101f5575b600080fd5b610161600480360381019061015c9190612144565b610493565b60405161016e919061218c565b60405180910390f35b610191600480360381019061018c91906123b7565b610575565b60405161019e919061218c565b60405180910390f35b6101af6106b2565b6040516101bc91906124c2565b60405180910390f35b6101df60048036038101906101da91906124e4565b610744565b6040516101ec9190612520565b60405180910390f35b61020f600480360381019061020a919061253b565b61078a565b005b6102196108a2565b6040516102269190612749565b60405180910390f35b6102496004803603810190610244919061276b565b6109c2565b005b6102656004803603810190610260919061276b565b610a22565b005b610281600480360381019061027c91906124e4565b610a42565b005b61029d600480360381019061029891906124e4565b610a4e565b6040516102aa919061218c565b60405180910390f35b6102cd60048036038101906102c891906127be565b610a60565b6040516102da919061218c565b60405180910390f35b6102fd60048036038101906102f8919061281a565b610bfc565b60405161030a91906124c2565b60405180910390f35b61032d600480360381019061032891906124e4565b610cc1565b60405161033a9190612520565b60405180910390f35b61034b610d73565b005b610367600480360381019061036291906124e4565b610d83565b6040516103749190612869565b60405180910390f35b61039760048036038101906103929190612884565b610da0565b6040516103a491906128c0565b60405180910390f35b6103b5610e58565b6040516103c291906124c2565b60405180910390f35b6103e560048036038101906103e09190612907565b610eea565b005b61040160048036038101906103fc9190612947565b610f00565b60405161040e919061218c565b60405180910390f35b610431600480360381019061042c9190612a73565b611043565b005b61044d600480360381019061044891906124e4565b6110a5565b60405161045a91906124c2565b60405180910390f35b61047d60048036038101906104789190612af6565b61114a565b60405161048a919061218c565b60405180910390f35b60007f80ac58cd000000000000000000000000000000000000000000000000000000007bffffffffffffffffffffffffffffffffffffffffffffffffffffffff1916827bffffffffffffffffffffffffffffffffffffffffffffffffffffffff1916148061055e57507f5b5e139f000000000000000000000000000000000000000000000000000000007bffffffffffffffffffffffffffffffffffffffffffffffffffffffff1916827bffffffffffffffffffffffffffffffffffffffffffffffffffffffff1916145b8061056e575061056d826111de565b5b9050919050565b600080851161058757610586612b36565b5b6000151561059486611248565b1515146105a4576105a3612b36565b5b600073ffffffffffffffffffffffffffffffffffffffff166007600087815260200190815260200160002060009054906101000a900473ffffffffffffffffffffffffffffffffffffffff1673ffffffffffffffffffffffffffffffffffffffff161461061457610613612b36565b5b8260066000878152602001908152602001600020908051906020019061063b929190611f0b565b50836007600087815260200190815260200160002060006101000a81548173ffffffffffffffffffffffffffffffffffffffff021916908373ffffffffffffffffffffffffffffffffffffffff16021790555081600860008781526020019081526020016000208190555060019050949350505050565b6060600080546106c190612b94565b80601f01602080910402602001604051908101604052809291908181526020018280546106ed90612b94565b801561073a5780601f1061070f5761010080835404028352916020019161073a565b820191906000526020600020905b81548152906001019060200180831161071d57829003601f168201915b5050505050905090565b600061074f826112b4565b6004600083815260200190815260200160002060009054906101000a900473ffffffffffffffffffffffffffffffffffffffff169050919050565b600061079582610cc1565b90508073ffffffffffffffffffffffffffffffffffffffff168373ffffffffffffffffffffffffffffffffffffffff161415610806576040517f08c379a00000000000000000000000000000000000000000000000000000000081526004016107fd90612c38565b60405180910390fd5b8073ffffffffffffffffffffffffffffffffffffffff166108256112ff565b73ffffffffffffffffffffffffffffffffffffffff16148061085457506108538161084e6112ff565b61114a565b5b610893576040517f08c379a000000000000000000000000000000000000000000000000000000000815260040161088a90612cca565b60405180910390fd5b61089d8383611307565b505050565b60606009805480602002602001604051908101604052809291908181526020016000905b828210156109b957838290600052602060002001805480602002602001604051908101604052809291908181526020016000905b828210156109a657838290600052602060002001805461091990612b94565b80601f016020809104026020016040519081016040528092919081815260200182805461094590612b94565b80156109925780601f1061096757610100808354040283529160200191610992565b820191906000526020600020905b81548152906001019060200180831161097557829003601f168201915b5050505050815260200190600101906108fa565b50505050815260200190600101906108c6565b50505050905090565b6109d36109cd6112ff565b826113c0565b610a12576040517f08c379a0000000000000000000000000000000000000000000000000000000008152600401610a0990612d5c565b60405180910390fd5b610a1d838383611455565b505050565b610a3d83838360405180602001604052806000815250611043565b505050565b610a4b816116bc565b50565b6000610a5982611248565b9050919050565b60003373ffffffffffffffffffffffffffffffffffffffff166007600085815260200190815260200160002060009054906101000a900473ffffffffffffffffffffffffffffffffffffffff1673ffffffffffffffffffffffffffffffffffffffff1614610ad157610ad0612b36565b5b6000600283604051602001610ae69190612db8565b604051602081830303815290604052604051610b029190612e16565b602060405180830381855afa158015610b1f573d6000803e3d6000fd5b5050506040513d601f19601f82011682018060405250810190610b429190612e42565b905060086000858152602001908152602001600020548114610b6757610b66612b36565b5b610ba46007600086815260200190815260200160002060009054906101000a900473ffffffffffffffffffffffffffffffffffffffff16856117d9565b6007600085815260200190815260200160002060006101000a81549073ffffffffffffffffffffffffffffffffffffffff02191690556008600085815260200190815260200160002060009055600191505092915050565b60098281548110610c0c57600080fd5b906000526020600020018181548110610c2457600080fd5b90600052602060002001600091509150508054610c4090612b94565b80601f0160208091040260200160405190810160405280929190818152602001828054610c6c90612b94565b8015610cb95780601f10610c8e57610100808354040283529160200191610cb9565b820191906000526020600020905b815481529060010190602001808311610c9c57829003601f168201915b505050505081565b6000806002600084815260200190815260200160002060009054906101000a900473ffffffffffffffffffffffffffffffffffffffff169050600073ffffffffffffffffffffffffffffffffffffffff168173ffffffffffffffffffffffffffffffffffffffff161415610d6a576040517f08c379a0000000000000000000000000000000000000000000000000000000008152600401610d6190612ebb565b60405180910390fd5b80915050919050565b60096000610d819190611f91565b565b600060086000838152602001908152602001600020549050919050565b60008073ffffffffffffffffffffffffffffffffffffffff168273ffffffffffffffffffffffffffffffffffffffff161415610e11576040517f08c379a0000000000000000000000000000000000000000000000000000000008152600401610e0890612f4d565b60405180910390fd5b600360008373ffffffffffffffffffffffffffffffffffffffff1673ffffffffffffffffffffffffffffffffffffffff168152602001908152602001600020549050919050565b606060018054610e6790612b94565b80601f0160208091040260200160405190810160405280929190818152602001828054610e9390612b94565b8015610ee05780601f10610eb557610100808354040283529160200191610ee0565b820191906000526020600020905b815481529060010190602001808311610ec357829003601f168201915b5050505050905090565b610efc610ef56112ff565b83836117f7565b5050565b600060011515610f0f85611248565b151514610f1f57610f1e612b36565b5b60096040518060800160405280610f3587611964565b8152602001858152602001600660008881526020019081526020016000208054610f5e90612b94565b80601f0160208091040260200160405190810160405280929190818152602001828054610f8a90612b94565b8015610fd75780601f10610fac57610100808354040283529160200191610fd7565b820191906000526020600020905b815481529060010190602001808311610fba57829003601f168201915b505050505081526020018481525090806001815401808255809150506001900390600052602060002001600090919091909150906004611018929190611fb2565b50611038337371fa7558e22ba5265a1e9069dcd2be7c6735be2386611455565b600190509392505050565b61105461104e6112ff565b836113c0565b611093576040517f08c379a000000000000000000000000000000000000000000000000000000000815260040161108a90612d5c565b60405180910390fd5b61109f84848484611ac5565b50505050565b60606006600083815260200190815260200160002080546110c590612b94565b80601f01602080910402602001604051908101604052809291908181526020018280546110f190612b94565b801561113e5780601f106111135761010080835404028352916020019161113e565b820191906000526020600020905b81548152906001019060200180831161112157829003601f168201915b50505050509050919050565b6000600560008473ffffffffffffffffffffffffffffffffffffffff1673ffffffffffffffffffffffffffffffffffffffff16815260200190815260200160002060008373ffffffffffffffffffffffffffffffffffffffff1673ffffffffffffffffffffffffffffffffffffffff16815260200190815260200160002060009054906101000a900460ff16905092915050565b60007f01ffc9a7000000000000000000000000000000000000000000000000000000007bffffffffffffffffffffffffffffffffffffffffffffffffffffffff1916827bffffffffffffffffffffffffffffffffffffffffffffffffffffffff1916149050919050565b60008073ffffffffffffffffffffffffffffffffffffffff166002600084815260200190815260200160002060009054906101000a900473ffffffffffffffffffffffffffffffffffffffff1673ffffffffffffffffffffffffffffffffffffffff1614159050919050565b6112bd81611248565b6112fc576040517f08c379a00000000000000000000000000000000000000000000000000000000081526004016112f390612ebb565b60405180910390fd5b50565b600033905090565b816004600083815260200190815260200160002060006101000a81548173ffffffffffffffffffffffffffffffffffffffff021916908373ffffffffffffffffffffffffffffffffffffffff160217905550808273ffffffffffffffffffffffffffffffffffffffff1661137a83610cc1565b73ffffffffffffffffffffffffffffffffffffffff167f8c5be1e5ebec7d5bd14f71427d1e84f3dd0314c0f7b2291e5b200ac8c7c3b92560405160405180910390a45050565b6000806113cc83610cc1565b90508073ffffffffffffffffffffffffffffffffffffffff168473ffffffffffffffffffffffffffffffffffffffff16148061140e575061140d818561114a565b5b8061144c57508373ffffffffffffffffffffffffffffffffffffffff1661143484610744565b73ffffffffffffffffffffffffffffffffffffffff16145b91505092915050565b8273ffffffffffffffffffffffffffffffffffffffff1661147582610cc1565b73ffffffffffffffffffffffffffffffffffffffff16146114cb576040517f08c379a00000000000000000000000000000000000000000000000000000000081526004016114c290612fdf565b60405180910390fd5b600073ffffffffffffffffffffffffffffffffffffffff168273ffffffffffffffffffffffffffffffffffffffff16141561153b576040517f08c379a000000000000000000000000000000000000000000000000000000000815260040161153290613071565b60405180910390fd5b611546838383611b21565b611551600082611307565b6001600360008573ffffffffffffffffffffffffffffffffffffffff1673ffffffffffffffffffffffffffffffffffffffff16815260200190815260200160002060008282546115a191906130c0565b925050819055506001600360008473ffffffffffffffffffffffffffffffffffffffff1673ffffffffffffffffffffffffffffffffffffffff16815260200190815260200160002060008282546115f891906130f4565b92505081905550816002600083815260200190815260200160002060006101000a81548173ffffffffffffffffffffffffffffffffffffffff021916908373ffffffffffffffffffffffffffffffffffffffff160217905550808273ffffffffffffffffffffffffffffffffffffffff168473ffffffffffffffffffffffffffffffffffffffff167fddf252ad1be2c89b69c2b068fc378daa952ba7f163c4a11628f55a4df523b3ef60405160405180910390a46116b7838383611b26565b505050565b60006116c782610cc1565b90506116d581600084611b21565b6116e0600083611307565b6001600360008373ffffffffffffffffffffffffffffffffffffffff1673ffffffffffffffffffffffffffffffffffffffff168152602001908152602001600020600082825461173091906130c0565b925050819055506002600083815260200190815260200160002060006101000a81549073ffffffffffffffffffffffffffffffffffffffff021916905581600073ffffffffffffffffffffffffffffffffffffffff168273ffffffffffffffffffffffffffffffffffffffff167fddf252ad1be2c89b69c2b068fc378daa952ba7f163c4a11628f55a4df523b3ef60405160405180910390a46117d581600084611b26565b5050565b6117f3828260405180602001604052806000815250611b2b565b5050565b8173ffffffffffffffffffffffffffffffffffffffff168373ffffffffffffffffffffffffffffffffffffffff161415611866576040517f08c379a000000000000000000000000000000000000000000000000000000000815260040161185d90613196565b60405180910390fd5b80600560008573ffffffffffffffffffffffffffffffffffffffff1673ffffffffffffffffffffffffffffffffffffffff16815260200190815260200160002060008473ffffffffffffffffffffffffffffffffffffffff1673ffffffffffffffffffffffffffffffffffffffff16815260200190815260200160002060006101000a81548160ff0219169083151502179055508173ffffffffffffffffffffffffffffffffffffffff168373ffffffffffffffffffffffffffffffffffffffff167f17307eab39ab6107e8899845ad3d59bd9653f200f220920489ca2b5937696c3183604051611957919061218c565b60405180910390a3505050565b606060008214156119ac576040518060400160405280600181526020017f30000000000000000000000000000000000000000000000000000000000000008152509050611ac0565b600082905060005b600082146119de5780806119c7906131b6565b915050600a826119d7919061322e565b91506119b4565b60008167ffffffffffffffff8111156119fa576119f9612256565b5b6040519080825280601f01601f191660200182016040528015611a2c5781602001600182028036833780820191505090505b5090505b60008514611ab957600182611a4591906130c0565b9150600a85611a54919061325f565b6030611a6091906130f4565b60f81b818381518110611a7657611a75613290565b5b60200101907effffffffffffffffffffffffffffffffffffffffffffffffffffffffffffff1916908160001a905350600a85611ab2919061322e565b9450611a30565b8093505050505b919050565b611ad0848484611455565b611adc84848484611b86565b611b1b576040517f08c379a0000000000000000000000000000000000000000000000000000000008152600401611b1290613331565b60405180910390fd5b50505050565b505050565b505050565b611b358383611d0e565b611b426000848484611b86565b611b81576040517f08c379a0000000000000000000000000000000000000000000000000000000008152600401611b7890613331565b60405180910390fd5b505050565b6000611ba78473ffffffffffffffffffffffffffffffffffffffff16611ee8565b15611d01578373ffffffffffffffffffffffffffffffffffffffff1663150b7a02611bd06112ff565b8786866040518563ffffffff1660e01b8152600401611bf2949392919061339b565b6020604051808303816000875af1925050508015611c2e57506040513d601f19601f82011682018060405250810190611c2b91906133fc565b60015b611cb1573d8060008114611c5e576040519150601f19603f3d011682016040523d82523d6000602084013e611c63565b606091505b50600081511415611ca9576040517f08c379a0000000000000000000000000000000000000000000000000000000008152600401611ca090613331565b60405180910390fd5b805181602001fd5b63150b7a0260e01b7bffffffffffffffffffffffffffffffffffffffffffffffffffffffff1916817bffffffffffffffffffffffffffffffffffffffffffffffffffffffff191614915050611d06565b600190505b949350505050565b600073ffffffffffffffffffffffffffffffffffffffff168273ffffffffffffffffffffffffffffffffffffffff161415611d7e576040517f08c379a0000000000000000000000000000000000000000000000000000000008152600401611d7590613475565b60405180910390fd5b611d8781611248565b15611dc7576040517f08c379a0000000000000000000000000000000000000000000000000000000008152600401611dbe906134e1565b60405180910390fd5b611dd360008383611b21565b6001600360008473ffffffffffffffffffffffffffffffffffffffff1673ffffffffffffffffffffffffffffffffffffffff1681526020019081526020016000206000828254611e2391906130f4565b92505081905550816002600083815260200190815260200160002060006101000a81548173ffffffffffffffffffffffffffffffffffffffff021916908373ffffffffffffffffffffffffffffffffffffffff160217905550808273ffffffffffffffffffffffffffffffffffffffff16600073ffffffffffffffffffffffffffffffffffffffff167fddf252ad1be2c89b69c2b068fc378daa952ba7f163c4a11628f55a4df523b3ef60405160405180910390a4611ee460008383611b26565b5050565b6000808273ffffffffffffffffffffffffffffffffffffffff163b119050919050565b828054611f1790612b94565b90600052602060002090601f016020900481019282611f395760008555611f80565b82601f10611f5257805160ff1916838001178555611f80565b82800160010185558215611f80579182015b82811115611f7f578251825591602001919060010190611f64565b5b509050611f8d9190612012565b5090565b5080546000825590600052602060002090810190611faf919061202f565b50565b828054828255906000526020600020908101928215612001579160200282015b82811115612000578251829080519060200190611ff0929190611f0b565b5091602001919060010190611fd2565b5b50905061200e9190612053565b5090565b5b8082111561202b576000816000905550600101612013565b5090565b5b8082111561204f57600081816120469190612077565b50600101612030565b5090565b5b80821115612073576000818161206a9190612098565b50600101612054565b5090565b50805460008255906000526020600020908101906120959190612053565b50565b5080546120a490612b94565b6000825580601f106120b657506120d5565b601f0160209004906000526020600020908101906120d49190612012565b5b50565b6000604051905090565b600080fd5b600080fd5b60007fffffffff0000000000000000000000000000000000000000000000000000000082169050919050565b612121816120ec565b811461212c57600080fd5b50565b60008135905061213e81612118565b92915050565b60006020828403121561215a576121596120e2565b5b60006121688482850161212f565b91505092915050565b60008115159050919050565b61218681612171565b82525050565b60006020820190506121a1600083018461217d565b92915050565b6000819050919050565b6121ba816121a7565b81146121c557600080fd5b50565b6000813590506121d7816121b1565b92915050565b600073ffffffffffffffffffffffffffffffffffffffff82169050919050565b6000612208826121dd565b9050919050565b612218816121fd565b811461222357600080fd5b50565b6000813590506122358161220f565b92915050565b600080fd5b600080fd5b6000601f19601f8301169050919050565b7f4e487b7100000000000000000000000000000000000000000000000000000000600052604160045260246000fd5b61228e82612245565b810181811067ffffffffffffffff821117156122ad576122ac612256565b5b80604052505050565b60006122c06120d8565b90506122cc8282612285565b919050565b600067ffffffffffffffff8211156122ec576122eb612256565b5b6122f582612245565b9050602081019050919050565b82818337600083830152505050565b600061232461231f846122d1565b6122b6565b9050828152602081018484840111156123405761233f612240565b5b61234b848285612302565b509392505050565b600082601f8301126123685761236761223b565b5b8135612378848260208601612311565b91505092915050565b6000819050919050565b61239481612381565b811461239f57600080fd5b50565b6000813590506123b18161238b565b92915050565b600080600080608085870312156123d1576123d06120e2565b5b60006123df878288016121c8565b94505060206123f087828801612226565b935050604085013567ffffffffffffffff811115612411576124106120e7565b5b61241d87828801612353565b925050606061242e878288016123a2565b91505092959194509250565b600081519050919050565b600082825260208201905092915050565b60005b83811015612474578082015181840152602081019050612459565b83811115612483576000848401525b50505050565b60006124948261243a565b61249e8185612445565b93506124ae818560208601612456565b6124b781612245565b840191505092915050565b600060208201905081810360008301526124dc8184612489565b905092915050565b6000602082840312156124fa576124f96120e2565b5b6000612508848285016121c8565b91505092915050565b61251a816121fd565b82525050565b60006020820190506125356000830184612511565b92915050565b60008060408385031215612552576125516120e2565b5b600061256085828601612226565b9250506020612571858286016121c8565b9150509250929050565b600081519050919050565b600082825260208201905092915050565b6000819050602082019050919050565b600081519050919050565b600082825260208201905092915050565b6000819050602082019050919050565b600082825260208201905092915050565b60006125ef8261243a565b6125f981856125d3565b9350612609818560208601612456565b61261281612245565b840191505092915050565b600061262983836125e4565b905092915050565b6000602082019050919050565b6000612649826125a7565b61265381856125b2565b935083602082028501612665856125c3565b8060005b858110156126a15784840389528151612682858261261d565b945061268d83612631565b925060208a01995050600181019050612669565b50829750879550505050505092915050565b60006126bf838361263e565b905092915050565b6000602082019050919050565b60006126df8261257b565b6126e98185612586565b9350836020820285016126fb85612597565b8060005b85811015612737578484038952815161271885826126b3565b9450612723836126c7565b925060208a019950506001810190506126ff565b50829750879550505050505092915050565b6000602082019050818103600083015261276381846126d4565b905092915050565b600080600060608486031215612784576127836120e2565b5b600061279286828701612226565b93505060206127a386828701612226565b92505060406127b4868287016121c8565b9150509250925092565b600080604083850312156127d5576127d46120e2565b5b60006127e3858286016121c8565b925050602083013567ffffffffffffffff811115612804576128036120e7565b5b61281085828601612353565b9150509250929050565b60008060408385031215612831576128306120e2565b5b600061283f858286016121c8565b9250506020612850858286016121c8565b9150509250929050565b61286381612381565b82525050565b600060208201905061287e600083018461285a565b92915050565b60006020828403121561289a576128996120e2565b5b60006128a884828501612226565b91505092915050565b6128ba816121a7565b82525050565b60006020820190506128d560008301846128b1565b92915050565b6128e481612171565b81146128ef57600080fd5b50565b600081359050612901816128db565b92915050565b6000806040838503121561291e5761291d6120e2565b5b600061292c85828601612226565b925050602061293d858286016128f2565b9150509250929050565b6000806000606084860312156129605761295f6120e2565b5b600061296e868287016121c8565b935050602084013567ffffffffffffffff81111561298f5761298e6120e7565b5b61299b86828701612353565b925050604084013567ffffffffffffffff8111156129bc576129bb6120e7565b5b6129c886828701612353565b9150509250925092565b600067ffffffffffffffff8211156129ed576129ec612256565b5b6129f682612245565b9050602081019050919050565b6000612a16612a11846129d2565b6122b6565b905082815260208101848484011115612a3257612a31612240565b5b612a3d848285612302565b509392505050565b600082601f830112612a5a57612a5961223b565b5b8135612a6a848260208601612a03565b91505092915050565b60008060008060808587031215612a8d57612a8c6120e2565b5b6000612a9b87828801612226565b9450506020612aac87828801612226565b9350506040612abd878288016121c8565b925050606085013567ffffffffffffffff811115612ade57612add6120e7565b5b612aea87828801612a45565b91505092959194509250565b60008060408385031215612b0d57612b0c6120e2565b5b6000612b1b85828601612226565b9250506020612b2c85828601612226565b9150509250929050565b7f4e487b7100000000000000000000000000000000000000000000000000000000600052600160045260246000fd5b7f4e487b7100000000000000000000000000000000000000000000000000000000600052602260045260246000fd5b60006002820490506001821680612bac57607f821691505b60208210811415612bc057612bbf612b65565b5b50919050565b7f4552433732313a20617070726f76616c20746f2063757272656e74206f776e6560008201527f7200000000000000000000000000000000000000000000000000000000000000602082015250565b6000612c22602183612445565b9150612c2d82612bc6565b604082019050919050565b60006020820190508181036000830152612c5181612c15565b9050919050565b7f4552433732313a20617070726f76652063616c6c6572206973206e6f7420746f60008201527f6b656e206f776e6572206e6f7220617070726f76656420666f7220616c6c0000602082015250565b6000612cb4603e83612445565b9150612cbf82612c58565b604082019050919050565b60006020820190508181036000830152612ce381612ca7565b9050919050565b7f4552433732313a2063616c6c6572206973206e6f7420746f6b656e206f776e6560008201527f72206e6f7220617070726f766564000000000000000000000000000000000000602082015250565b6000612d46602e83612445565b9150612d5182612cea565b604082019050919050565b60006020820190508181036000830152612d7581612d39565b9050919050565b600081905092915050565b6000612d928261243a565b612d9c8185612d7c565b9350612dac818560208601612456565b80840191505092915050565b6000612dc48284612d87565b915081905092915050565b600081519050919050565b600081905092915050565b6000612df082612dcf565b612dfa8185612dda565b9350612e0a818560208601612456565b80840191505092915050565b6000612e228284612de5565b915081905092915050565b600081519050612e3c8161238b565b92915050565b600060208284031215612e5857612e576120e2565b5b6000612e6684828501612e2d565b91505092915050565b7f4552433732313a20696e76616c696420746f6b656e2049440000000000000000600082015250565b6000612ea5601883612445565b9150612eb082612e6f565b602082019050919050565b60006020820190508181036000830152612ed481612e98565b9050919050565b7f4552433732313a2061646472657373207a65726f206973206e6f74206120766160008201527f6c6964206f776e65720000000000000000000000000000000000000000000000602082015250565b6000612f37602983612445565b9150612f4282612edb565b604082019050919050565b60006020820190508181036000830152612f6681612f2a565b9050919050565b7f4552433732313a207472616e736665722066726f6d20696e636f72726563742060008201527f6f776e6572000000000000000000000000000000000000000000000000000000602082015250565b6000612fc9602583612445565b9150612fd482612f6d565b604082019050919050565b60006020820190508181036000830152612ff881612fbc565b9050919050565b7f4552433732313a207472616e7366657220746f20746865207a65726f2061646460008201527f7265737300000000000000000000000000000000000000000000000000000000602082015250565b600061305b602483612445565b915061306682612fff565b604082019050919050565b6000602082019050818103600083015261308a8161304e565b9050919050565b7f4e487b7100000000000000000000000000000000000000000000000000000000600052601160045260246000fd5b60006130cb826121a7565b91506130d6836121a7565b9250828210156130e9576130e8613091565b5b828203905092915050565b60006130ff826121a7565b915061310a836121a7565b9250827fffffffffffffffffffffffffffffffffffffffffffffffffffffffffffffffff0382111561313f5761313e613091565b5b828201905092915050565b7f4552433732313a20617070726f766520746f2063616c6c657200000000000000600082015250565b6000613180601983612445565b915061318b8261314a565b602082019050919050565b600060208201905081810360008301526131af81613173565b9050919050565b60006131c1826121a7565b91507fffffffffffffffffffffffffffffffffffffffffffffffffffffffffffffffff8214156131f4576131f3613091565b5b600182019050919050565b7f4e487b7100000000000000000000000000000000000000000000000000000000600052601260045260246000fd5b6000613239826121a7565b9150613244836121a7565b925082613254576132536131ff565b5b828204905092915050565b600061326a826121a7565b9150613275836121a7565b925082613285576132846131ff565b5b828206905092915050565b7f4e487b7100000000000000000000000000000000000000000000000000000000600052603260045260246000fd5b7f4552433732313a207472616e7366657220746f206e6f6e20455243373231526560008201527f63656976657220696d706c656d656e7465720000000000000000000000000000602082015250565b600061331b603283612445565b9150613326826132bf565b604082019050919050565b6000602082019050818103600083015261334a8161330e565b9050919050565b600082825260208201905092915050565b600061336d82612dcf565b6133778185613351565b9350613387818560208601612456565b61339081612245565b840191505092915050565b60006080820190506133b06000830187612511565b6133bd6020830186612511565b6133ca60408301856128b1565b81810360608301526133dc8184613362565b905095945050505050565b6000815190506133f681612118565b92915050565b600060208284031215613412576134116120e2565b5b6000613420848285016133e7565b91505092915050565b7f4552433732313a206d696e7420746f20746865207a65726f2061646472657373600082015250565b600061345f602083612445565b915061346a82613429565b602082019050919050565b6000602082019050818103600083015261348e81613452565b9050919050565b7f4552433732313a20746f6b656e20616c7265616479206d696e74656400000000600082015250565b60006134cb601c83612445565b91506134d682613495565b602082019050919050565b600060208201905081810360008301526134fa816134be565b905091905056fea2646970667358221220c873d8a764212558ab82f4d7352088521c41f5fca992932b6b6618c12d671ff664736f6c634300080a0033",
  "immutableReferences": {},
  "source": "// SPDX-License-Identifier: MIT\npragma solidity ^0.8.0;\n\nimport \"@openzeppelin/contracts/token/ERC721/ERC721.sol\";\nimport \"@openzeppelin/contracts/utils/Counters.sol\";\nimport \"@openzeppelin/contracts/utils/Strings.sol\";\n\ncontract NFT is ERC721 {\n    mapping(uint256 => string) tokens;\n    mapping(uint256 => address) receivers;\n    mapping(uint256 => bytes32) hashValues;\n\n    // Cross chain transfer NFT to other blockchain network\n    string[][] public crossChainPending;\n\n    constructor() ERC721(\"FLOW-DANTE\", \"FLOW-DANTE\") {\n    }\n\n    event show(bytes32 hash);\n    event showString(string hash);\n\n    /// @dev Mint NFT from other blockchains\n    function crossChainMint(uint256 tokenId, address receiver, string memory tokenURL, bytes32 hashValue) public returns (bool){\n        assert(tokenId > 0);\n        // ensure token is not exists\n        assert(_exists(tokenId) == false);\n        assert(receivers[tokenId] == address(0));\n\n        tokens[tokenId] = tokenURL;\n        receivers[tokenId] = receiver;\n        hashValues[tokenId] = hashValue;\n\n        return true;\n    }\n\n    /// @dev Query hash value by tokenId\n    function getHashValue(uint256 tokenId) public view virtual returns (bytes32 hashValue){\n        return hashValues[tokenId];\n    }\n\n    /// @dev Receiver submit random number to claim NFT which was minted by other blockchains\n    function crossChainClaim(uint256 tokenId, string memory anwser) public returns (bool){\n        // Ensure token receiver equals to message sender\n        assert(receivers[tokenId] == msg.sender);\n                \n        // Compare hashed value\n        bytes32 anwserHashValue = sha256(abi.encodePacked(anwser));\n        assert(anwserHashValue == hashValues[tokenId]);\n        \n        _safeMint(receivers[tokenId], tokenId);\n\n        delete receivers[tokenId];\n        delete hashValues[tokenId];\n        \n        return true;\n    }\n\n    /// @dev Lock NFT to contract owner, and push cross chain info into crossChainPending\n    function crossChainTransfer(uint256 tokenId, string memory receiver, string memory hashValue) public returns (bool){\n        // Ensure token is exists\n        assert(_exists(tokenId) == true);\n \n        // crossChainPending[tokenId] = [receiver, tokens[tokenId], hashValue];\n        crossChainPending.push([Strings.toString(tokenId), receiver, tokens[tokenId], hashValue]);\n\n        _transfer(msg.sender, address(0x71Fa7558e22Ba5265a1e9069dcd2be7c6735BE23 ), tokenId);\n\n        return true;\n    }\n\n    /// @dev Returns cross chain transfer info for a given token ID\n    function queryCrossChainPending() public view virtual returns (string[][] memory){\n        return crossChainPending;\n    }\n\n    /// @dev Returns an URI for a given token ID\n    function tokenURI(uint256 tokenId) public view virtual override returns (string memory) {\n        return tokens[tokenId];\n    }\n\n    /**\n     * @dev Returns whether `tokenId` exists.\n     *\n     * Tokens can be managed by their owner or approved accounts via {approve} or {setApprovalForAll}.\n     *\n     * Tokens start existing when they are minted (`_mint`),\n     * and stop existing when they are burned (`_burn`).\n     */\n    function exists(uint256 tokenId) public view virtual returns (bool) {\n        return _exists(tokenId);\n    }\n\n     /**\n     * @dev Destroys `tokenId`.\n     * The approval is cleared when the token is burned.\n     *\n     * Requirements:\n     *\n     * - `tokenId` must exist.\n     *\n     * Emits a {Transfer} event.\n     */\n    function burn(uint256 tokenId) public {\n        _burn(tokenId);\n    }\n\n    function clearMsg() public {\n        delete crossChainPending;\n        // crossChainPending = new string [][](0);\n    }\n}\n",
  "sourcePath": "/home/xiyu/dev/cadence/cadence-contracts/erc721/contracts/NFT.sol",
  "compiler": {
    "name": "solc",
    "version": "0.8.10+commit.fc410830.Emscripten.clang"
  },
  "schemaVersion": "3.4.8",
  "updatedAt": "2022-08-01T14:40:31.216Z",
  "devdoc": {
    "kind": "dev",
    "methods": {
      "approve(address,uint256)": {
        "details": "See {IERC721-approve}."
      },
      "balanceOf(address)": {
        "details": "See {IERC721-balanceOf}."
      },
      "burn(uint256)": {
        "details": "Destroys `tokenId`. The approval is cleared when the token is burned. Requirements: - `tokenId` must exist. Emits a {Transfer} event."
      },
      "crossChainClaim(uint256,string)": {
        "details": "Receiver submit random number to claim NFT which was minted by other blockchains"
      },
      "crossChainMint(uint256,address,string,bytes32)": {
        "details": "Mint NFT from other blockchains"
      },
      "crossChainTransfer(uint256,string,string)": {
        "details": "Lock NFT to contract owner, and push cross chain info into crossChainPending"
      },
      "exists(uint256)": {
        "details": "Returns whether `tokenId` exists. Tokens can be managed by their owner or approved accounts via {approve} or {setApprovalForAll}. Tokens start existing when they are minted (`_mint`), and stop existing when they are burned (`_burn`)."
      },
      "getApproved(uint256)": {
        "details": "See {IERC721-getApproved}."
      },
      "getHashValue(uint256)": {
        "details": "Query hash value by tokenId"
      },
      "isApprovedForAll(address,address)": {
        "details": "See {IERC721-isApprovedForAll}."
      },
      "name()": {
        "details": "See {IERC721Metadata-name}."
      },
      "ownerOf(uint256)": {
        "details": "See {IERC721-ownerOf}."
      },
      "queryCrossChainPending()": {
        "details": "Returns cross chain transfer info for a given token ID"
      },
      "safeTransferFrom(address,address,uint256)": {
        "details": "See {IERC721-safeTransferFrom}."
      },
      "safeTransferFrom(address,address,uint256,bytes)": {
        "details": "See {IERC721-safeTransferFrom}."
      },
      "setApprovalForAll(address,bool)": {
        "details": "See {IERC721-setApprovalForAll}."
      },
      "supportsInterface(bytes4)": {
        "details": "See {IERC165-supportsInterface}."
      },
      "symbol()": {
        "details": "See {IERC721Metadata-symbol}."
      },
      "tokenURI(uint256)": {
        "details": "Returns an URI for a given token ID"
      },
      "transferFrom(address,address,uint256)": {
        "details": "See {IERC721-transferFrom}."
      }
    },
    "version": 1
  },
  "userdoc": {
    "kind": "user",
    "methods": {},
    "version": 1
  }
}